{
  "_format": "hh-sol-artifact-1",
  "contractName": "TokenSell",
  "sourceName": "contracts/TokenSell.sol",
  "abi": [
    {
      "inputs": [
        {
          "internalType": "contract Token",
          "name": "_tokenContract",
          "type": "address"
        },
        {
          "internalType": "uint256",
          "name": "_tokenPrice",
          "type": "uint256"
        }
      ],
      "stateMutability": "nonpayable",
      "type": "constructor"
    },
    {
      "anonymous": false,
      "inputs": [
        {
          "indexed": false,
          "internalType": "address",
          "name": "_buyer",
          "type": "address"
        },
        {
          "indexed": false,
          "internalType": "uint256",
          "name": "_amount",
          "type": "uint256"
        }
      ],
      "name": "Sell",
      "type": "event"
    },
    {
      "inputs": [
        {
          "internalType": "uint256",
          "name": "_numberOfTokens",
          "type": "uint256"
        }
      ],
      "name": "buyToken",
      "outputs": [],
      "stateMutability": "payable",
      "type": "function"
    },
    {
      "inputs": [],
      "name": "endSale",
      "outputs": [],
      "stateMutability": "nonpayable",
      "type": "function"
    },
    {
      "inputs": [],
      "name": "tokenContract",
      "outputs": [
        {
          "internalType": "contract Token",
          "name": "",
          "type": "address"
        }
      ],
      "stateMutability": "view",
      "type": "function"
    },
    {
      "inputs": [],
      "name": "tokenPrice",
      "outputs": [
        {
          "internalType": "uint256",
          "name": "",
          "type": "uint256"
        }
      ],
      "stateMutability": "view",
      "type": "function"
    },
    {
      "inputs": [],
      "name": "tokensSold",
      "outputs": [
        {
          "internalType": "uint256",
          "name": "",
          "type": "uint256"
        }
      ],
      "stateMutability": "view",
      "type": "function"
    }
  ],
  "bytecode": "0x60806040523480156200001157600080fd5b5060405162000bb838038062000bb8833981810160405281019062000037919062000195565b336000806101000a81548173ffffffffffffffffffffffffffffffffffffffff021916908373ffffffffffffffffffffffffffffffffffffffff16021790555081600160006101000a81548173ffffffffffffffffffffffffffffffffffffffff021916908373ffffffffffffffffffffffffffffffffffffffff160217905550670de0b6b3a764000081620000ce91906200020b565b60028190555050506200026c565b600080fd5b600073ffffffffffffffffffffffffffffffffffffffff82169050919050565b60006200010e82620000e1565b9050919050565b6000620001228262000101565b9050919050565b620001348162000115565b81146200014057600080fd5b50565b600081519050620001548162000129565b92915050565b6000819050919050565b6200016f816200015a565b81146200017b57600080fd5b50565b6000815190506200018f8162000164565b92915050565b60008060408385031215620001af57620001ae620000dc565b5b6000620001bf8582860162000143565b9250506020620001d2858286016200017e565b9150509250929050565b7f4e487b7100000000000000000000000000000000000000000000000000000000600052601160045260246000fd5b600062000218826200015a565b915062000225836200015a565b9250817fffffffffffffffffffffffffffffffffffffffffffffffffffffffffffffffff0483118215151615620002615762000260620001dc565b5b828202905092915050565b61093c806200027c6000396000f3fe60806040526004361061004a5760003560e01c80632d296bf11461004f578063380d831b1461006b578063518ab2a81461008257806355a373d6146100ad5780637ff9b596146100d8575b600080fd5b610069600480360381019061006491906105d7565b610103565b005b34801561007757600080fd5b506100806102f0565b005b34801561008e57600080fd5b50610097610533565b6040516100a49190610613565b60405180910390f35b3480156100b957600080fd5b506100c2610539565b6040516100cf91906106ad565b60405180910390f35b3480156100e457600080fd5b506100ed61055f565b6040516100fa9190610613565b60405180910390f35b61010f81600254610565565b341461011a57600080fd5b80600160009054906101000a900473ffffffffffffffffffffffffffffffffffffffff1673ffffffffffffffffffffffffffffffffffffffff166370a08231306040518263ffffffff1660e01b815260040161017691906106e9565b60206040518083038186803b15801561018e57600080fd5b505afa1580156101a2573d6000803e3d6000fd5b505050506040513d601f19601f820116820180604052508101906101c69190610719565b10156101d157600080fd5b600160009054906101000a900473ffffffffffffffffffffffffffffffffffffffff1673ffffffffffffffffffffffffffffffffffffffff1663a9059cbb33670de0b6b3a7640000846102249190610775565b6040518363ffffffff1660e01b81526004016102419291906107cf565b602060405180830381600087803b15801561025b57600080fd5b505af115801561026f573d6000803e3d6000fd5b505050506040513d601f19601f820116820180604052508101906102939190610830565b61029c57600080fd5b600360008154809291906102af9061085d565b91905055507f5e5e995ce3133561afceaa51a9a154d5db228cd7525d34df5185582c18d3df0933826040516102e59291906107cf565b60405180910390a150565b60008054906101000a900473ffffffffffffffffffffffffffffffffffffffff1673ffffffffffffffffffffffffffffffffffffffff163373ffffffffffffffffffffffffffffffffffffffff161461034857600080fd5b600160009054906101000a900473ffffffffffffffffffffffffffffffffffffffff1673ffffffffffffffffffffffffffffffffffffffff1663a9059cbb60008054906101000a900473ffffffffffffffffffffffffffffffffffffffff16600160009054906101000a900473ffffffffffffffffffffffffffffffffffffffff1673ffffffffffffffffffffffffffffffffffffffff166370a08231306040518263ffffffff1660e01b815260040161040291906106e9565b60206040518083038186803b15801561041a57600080fd5b505afa15801561042e573d6000803e3d6000fd5b505050506040513d601f19601f820116820180604052508101906104529190610719565b6040518363ffffffff1660e01b815260040161046f9291906107cf565b602060405180830381600087803b15801561048957600080fd5b505af115801561049d573d6000803e3d6000fd5b505050506040513d601f19601f820116820180604052508101906104c19190610830565b6104ca57600080fd5b60008054906101000a900473ffffffffffffffffffffffffffffffffffffffff1673ffffffffffffffffffffffffffffffffffffffff166108fc479081150290604051600060405180830381858888f19350505050158015610530573d6000803e3d6000fd5b50565b60035481565b600160009054906101000a900473ffffffffffffffffffffffffffffffffffffffff1681565b60025481565b60008082148061058d57508282838561057e9190610775565b92508261058b91906108d5565b145b61059657600080fd5b92915050565b600080fd5b6000819050919050565b6105b4816105a1565b81146105bf57600080fd5b50565b6000813590506105d1816105ab565b92915050565b6000602082840312156105ed576105ec61059c565b5b60006105fb848285016105c2565b91505092915050565b61060d816105a1565b82525050565b60006020820190506106286000830184610604565b92915050565b600073ffffffffffffffffffffffffffffffffffffffff82169050919050565b6000819050919050565b600061067361066e6106698461062e565b61064e565b61062e565b9050919050565b600061068582610658565b9050919050565b60006106978261067a565b9050919050565b6106a78161068c565b82525050565b60006020820190506106c2600083018461069e565b92915050565b60006106d38261062e565b9050919050565b6106e3816106c8565b82525050565b60006020820190506106fe60008301846106da565b92915050565b600081519050610713816105ab565b92915050565b60006020828403121561072f5761072e61059c565b5b600061073d84828501610704565b91505092915050565b7f4e487b7100000000000000000000000000000000000000000000000000000000600052601160045260246000fd5b6000610780826105a1565b915061078b836105a1565b9250817fffffffffffffffffffffffffffffffffffffffffffffffffffffffffffffffff04831182151516156107c4576107c3610746565b5b828202905092915050565b60006040820190506107e460008301856106da565b6107f16020830184610604565b9392505050565b60008115159050919050565b61080d816107f8565b811461081857600080fd5b50565b60008151905061082a81610804565b92915050565b6000602082840312156108465761084561059c565b5b60006108548482850161081b565b91505092915050565b6000610868826105a1565b91507fffffffffffffffffffffffffffffffffffffffffffffffffffffffffffffffff82141561089b5761089a610746565b5b600182019050919050565b7f4e487b7100000000000000000000000000000000000000000000000000000000600052601260045260246000fd5b60006108e0826105a1565b91506108eb836105a1565b9250826108fb576108fa6108a6565b5b82820490509291505056fea26469706673582212203d89865143b5c428c3f8cb8fe69d9646fd8ee91cb45b59c18b283d8167fa374164736f6c63430008090033",
  "linkReferences": {},
  "deployedLinkReferences": {}
}