{
  "_format": "hh-sol-artifact-1",
  "contractName": "Token",
  "sourceName": "contracts/Token.sol",
  "abi": [
    {
      "inputs": [
        {
          "internalType": "uint256",
          "name": "_initialSupply",
          "type": "uint256"
        }
      ],
      "stateMutability": "nonpayable",
      "type": "constructor"
    },
    {
      "anonymous": false,
      "inputs": [
        {
          "indexed": true,
          "internalType": "address",
          "name": "_owner",
          "type": "address"
        },
        {
          "indexed": false,
          "internalType": "address",
          "name": "_spender",
          "type": "address"
        },
        {
          "indexed": false,
          "internalType": "uint256",
          "name": "_value",
          "type": "uint256"
        }
      ],
      "name": "Approval",
      "type": "event"
    },
    {
      "anonymous": false,
      "inputs": [
        {
          "indexed": true,
          "internalType": "address",
          "name": "_from",
          "type": "address"
        },
        {
          "indexed": true,
          "internalType": "address",
          "name": "_to",
          "type": "address"
        },
        {
          "indexed": false,
          "internalType": "uint256",
          "name": "_value",
          "type": "uint256"
        }
      ],
      "name": "Transfer",
      "type": "event"
    },
    {
      "inputs": [],
      "name": "Decimal",
      "outputs": [
        {
          "internalType": "uint256",
          "name": "",
          "type": "uint256"
        }
      ],
      "stateMutability": "view",
      "type": "function"
    },
    {
      "inputs": [],
      "name": "_userId",
      "outputs": [
        {
          "internalType": "uint256",
          "name": "",
          "type": "uint256"
        }
      ],
      "stateMutability": "view",
      "type": "function"
    },
    {
      "inputs": [
        {
          "internalType": "address",
          "name": "",
          "type": "address"
        },
        {
          "internalType": "address",
          "name": "",
          "type": "address"
        }
      ],
      "name": "allowance",
      "outputs": [
        {
          "internalType": "uint256",
          "name": "",
          "type": "uint256"
        }
      ],
      "stateMutability": "view",
      "type": "function"
    },
    {
      "inputs": [
        {
          "internalType": "address",
          "name": "_spender",
          "type": "address"
        },
        {
          "internalType": "uint256",
          "name": "_value",
          "type": "uint256"
        }
      ],
      "name": "approve",
      "outputs": [
        {
          "internalType": "bool",
          "name": "success",
          "type": "bool"
        }
      ],
      "stateMutability": "nonpayable",
      "type": "function"
    },
    {
      "inputs": [
        {
          "internalType": "address",
          "name": "",
          "type": "address"
        }
      ],
      "name": "balanceOf",
      "outputs": [
        {
          "internalType": "uint256",
          "name": "",
          "type": "uint256"
        }
      ],
      "stateMutability": "view",
      "type": "function"
    },
    {
      "inputs": [],
      "name": "getTokenHolder",
      "outputs": [
        {
          "internalType": "address[]",
          "name": "",
          "type": "address[]"
        }
      ],
      "stateMutability": "view",
      "type": "function"
    },
    {
      "inputs": [
        {
          "internalType": "address",
          "name": "_address",
          "type": "address"
        }
      ],
      "name": "getTokenHolderData",
      "outputs": [
        {
          "internalType": "uint256",
          "name": "",
          "type": "uint256"
        },
        {
          "internalType": "address",
          "name": "",
          "type": "address"
        },
        {
          "internalType": "address",
          "name": "",
          "type": "address"
        },
        {
          "internalType": "uint256",
          "name": "",
          "type": "uint256"
        },
        {
          "internalType": "bool",
          "name": "",
          "type": "bool"
        }
      ],
      "stateMutability": "view",
      "type": "function"
    },
    {
      "inputs": [
        {
          "internalType": "uint256",
          "name": "",
          "type": "uint256"
        }
      ],
      "name": "holder",
      "outputs": [
        {
          "internalType": "address",
          "name": "",
          "type": "address"
        }
      ],
      "stateMutability": "view",
      "type": "function"
    },
    {
      "inputs": [],
      "name": "name",
      "outputs": [
        {
          "internalType": "string",
          "name": "",
          "type": "string"
        }
      ],
      "stateMutability": "view",
      "type": "function"
    },
    {
      "inputs": [],
      "name": "ownerOfContract",
      "outputs": [
        {
          "internalType": "address",
          "name": "",
          "type": "address"
        }
      ],
      "stateMutability": "view",
      "type": "function"
    },
    {
      "inputs": [],
      "name": "standard",
      "outputs": [
        {
          "internalType": "string",
          "name": "",
          "type": "string"
        }
      ],
      "stateMutability": "view",
      "type": "function"
    },
    {
      "inputs": [],
      "name": "symbol",
      "outputs": [
        {
          "internalType": "string",
          "name": "",
          "type": "string"
        }
      ],
      "stateMutability": "view",
      "type": "function"
    },
    {
      "inputs": [
        {
          "internalType": "address",
          "name": "",
          "type": "address"
        }
      ],
      "name": "tokenHolderInfos",
      "outputs": [
        {
          "internalType": "uint256",
          "name": "_tokenId",
          "type": "uint256"
        },
        {
          "internalType": "address",
          "name": "_from",
          "type": "address"
        },
        {
          "internalType": "address",
          "name": "_to",
          "type": "address"
        },
        {
          "internalType": "uint256",
          "name": "_totalToken",
          "type": "uint256"
        },
        {
          "internalType": "bool",
          "name": "_tokenHolder",
          "type": "bool"
        }
      ],
      "stateMutability": "view",
      "type": "function"
    },
    {
      "inputs": [],
      "name": "totalSupply",
      "outputs": [
        {
          "internalType": "uint256",
          "name": "",
          "type": "uint256"
        }
      ],
      "stateMutability": "view",
      "type": "function"
    },
    {
      "inputs": [
        {
          "internalType": "address",
          "name": "_to",
          "type": "address"
        },
        {
          "internalType": "uint256",
          "name": "amount",
          "type": "uint256"
        }
      ],
      "name": "transfer",
      "outputs": [
        {
          "internalType": "bool",
          "name": "success",
          "type": "bool"
        }
      ],
      "stateMutability": "nonpayable",
      "type": "function"
    },
    {
      "inputs": [
        {
          "internalType": "address",
          "name": "_from",
          "type": "address"
        },
        {
          "internalType": "address",
          "name": "_to",
          "type": "address"
        },
        {
          "internalType": "uint256",
          "name": "_amount",
          "type": "uint256"
        }
      ],
      "name": "transferFrom",
      "outputs": [
        {
          "internalType": "bool",
          "name": "success",
          "type": "bool"
        }
      ],
      "stateMutability": "nonpayable",
      "type": "function"
    }
  ],
  "bytecode": "0x60806040526040518060400160405280600a81526020017f5465737420546f6b656e000000000000000000000000000000000000000000008152506000908051906020019062000051929190620001d8565b506040518060400160405280600481526020017f5445535400000000000000000000000000000000000000000000000000000000815250600190805190602001906200009f929190620001d8565b506040518060400160405280601781526020017f405465737420546f6b656e2076657273696f6e20302e3100000000000000000081525060029080519060200190620000ed929190620001d8565b5060126007553480156200010057600080fd5b5060405162001df938038062001df98339818101604052810190620001269190620002c8565b33600460006101000a81548173ffffffffffffffffffffffffffffffffffffffff021916908373ffffffffffffffffffffffffffffffffffffffff160217905550600754600a6200017891906200047d565b81620001859190620004ce565b600381905550600354600960003373ffffffffffffffffffffffffffffffffffffffff1673ffffffffffffffffffffffffffffffffffffffff168152602001908152602001600020819055505062000594565b828054620001e6906200055e565b90600052602060002090601f0160209004810192826200020a576000855562000256565b82601f106200022557805160ff191683800117855562000256565b8280016001018555821562000256579182015b828111156200025557825182559160200191906001019062000238565b5b50905062000265919062000269565b5090565b5b80821115620002845760008160009055506001016200026a565b5090565b600080fd5b6000819050919050565b620002a2816200028d565b8114620002ae57600080fd5b50565b600081519050620002c28162000297565b92915050565b600060208284031215620002e157620002e062000288565b5b6000620002f184828501620002b1565b91505092915050565b7f4e487b7100000000000000000000000000000000000000000000000000000000600052601160045260246000fd5b60008160011c9050919050565b6000808291508390505b6001851115620003885780860481111562000360576200035f620002fa565b5b6001851615620003705780820291505b8081029050620003808562000329565b945062000340565b94509492505050565b600082620003a3576001905062000476565b81620003b3576000905062000476565b8160018114620003cc5760028114620003d7576200040d565b600191505062000476565b60ff841115620003ec57620003eb620002fa565b5b8360020a915084821115620004065762000405620002fa565b5b5062000476565b5060208310610133831016604e8410600b8410161715620004475782820a905083811115620004415762000440620002fa565b5b62000476565b62000456848484600162000336565b9250905081840481111562000470576200046f620002fa565b5b81810290505b9392505050565b60006200048a826200028d565b915062000497836200028d565b9250620004c67fffffffffffffffffffffffffffffffffffffffffffffffffffffffffffffffff848462000391565b905092915050565b6000620004db826200028d565b9150620004e8836200028d565b9250817fffffffffffffffffffffffffffffffffffffffffffffffffffffffffffffffff0483118215151615620005245762000523620002fa565b5b828202905092915050565b7f4e487b7100000000000000000000000000000000000000000000000000000000600052602260045260246000fd5b600060028204905060018216806200057757607f821691505b602082108114156200058e576200058d6200052f565b5b50919050565b61185580620005a46000396000f3fe608060405234801561001057600080fd5b50600436106101005760003560e01c806370a0823111610097578063ba899a2e11610066578063ba899a2e146102e1578063ba8e355714610311578063bc4530e71461032f578063dd62ed3e1461034d57610100565b806370a082311461022f57806382b682631461025f57806395d89b4114610293578063a9059cbb146102b157610100565b806323b872dd116100d357806323b872dd1461018f57806329cc66ed146101bf578063468229ae146101f35780635a3b7e421461021157610100565b806306fdde0314610105578063095ea7b31461012357806318160ddd146101535780631fe50c3914610171575b600080fd5b61010d61037d565b60405161011a919061112f565b60405180910390f35b61013d600480360381019061013891906111ea565b61040b565b60405161014a9190611245565b60405180910390f35b61015b6104e8565b604051610168919061126f565b60405180910390f35b6101796104ee565b604051610186919061126f565b60405180910390f35b6101a960048036038101906101a4919061128a565b6104f4565b6040516101b69190611245565b60405180910390f35b6101d960048036038101906101d491906112dd565b6107e6565b6040516101ea959493929190611319565b60405180910390f35b6101fb610869565b604051610208919061136c565b60405180910390f35b61021961088f565b604051610226919061112f565b60405180910390f35b610249600480360381019061024491906112dd565b61091d565b604051610256919061126f565b60405180910390f35b610279600480360381019061027491906112dd565b610935565b60405161028a959493929190611319565b60405180910390f35b61029b610aec565b6040516102a8919061112f565b60405180910390f35b6102cb60048036038101906102c691906111ea565b610b7a565b6040516102d89190611245565b60405180910390f35b6102fb60048036038101906102f69190611387565b610ed9565b604051610308919061136c565b60405180910390f35b610319610f18565b6040516103269190611472565b60405180910390f35b610337610fa6565b604051610344919061126f565b60405180910390f35b61036760048036038101906103629190611494565b610fac565b604051610374919061126f565b60405180910390f35b6000805461038a90611503565b80601f01602080910402602001604051908101604052809291908181526020018280546103b690611503565b80156104035780601f106103d857610100808354040283529160200191610403565b820191906000526020600020905b8154815290600101906020018083116103e657829003601f168201915b505050505081565b600081600a60003373ffffffffffffffffffffffffffffffffffffffff1673ffffffffffffffffffffffffffffffffffffffff16815260200190815260200160002060008573ffffffffffffffffffffffffffffffffffffffff1673ffffffffffffffffffffffffffffffffffffffff168152602001908152602001600020819055503373ffffffffffffffffffffffffffffffffffffffff167f8c5be1e5ebec7d5bd14f71427d1e84f3dd0314c0f7b2291e5b200ac8c7c3b92584846040516104d6929190611535565b60405180910390a26001905092915050565b60035481565b60075481565b6000600960008573ffffffffffffffffffffffffffffffffffffffff1673ffffffffffffffffffffffffffffffffffffffff16815260200190815260200160002054821115610578576040517f08c379a000000000000000000000000000000000000000000000000000000000815260040161056f906115aa565b60405180910390fd5b81600a60008673ffffffffffffffffffffffffffffffffffffffff1673ffffffffffffffffffffffffffffffffffffffff16815260200190815260200160002060003373ffffffffffffffffffffffffffffffffffffffff1673ffffffffffffffffffffffffffffffffffffffff168152602001908152602001600020541015610637576040517f08c379a000000000000000000000000000000000000000000000000000000000815260040161062e9061163c565b60405180910390fd5b81600960008673ffffffffffffffffffffffffffffffffffffffff1673ffffffffffffffffffffffffffffffffffffffff1681526020019081526020016000206000828254610686919061168b565b9250508190555081600960008573ffffffffffffffffffffffffffffffffffffffff1673ffffffffffffffffffffffffffffffffffffffff16815260200190815260200160002060008282546106dc91906116bf565b9250508190555081600a60008673ffffffffffffffffffffffffffffffffffffffff1673ffffffffffffffffffffffffffffffffffffffff16815260200190815260200160002060003373ffffffffffffffffffffffffffffffffffffffff1673ffffffffffffffffffffffffffffffffffffffff168152602001908152602001600020600082825461076f919061168b565b925050819055508273ffffffffffffffffffffffffffffffffffffffff168473ffffffffffffffffffffffffffffffffffffffff167fddf252ad1be2c89b69c2b068fc378daa952ba7f163c4a11628f55a4df523b3ef846040516107d3919061126f565b60405180910390a3600190509392505050565b60086020528060005260406000206000915090508060000154908060010160009054906101000a900473ffffffffffffffffffffffffffffffffffffffff16908060020160009054906101000a900473ffffffffffffffffffffffffffffffffffffffff16908060030154908060040160009054906101000a900460ff16905085565b600460009054906101000a900473ffffffffffffffffffffffffffffffffffffffff1681565b6002805461089c90611503565b80601f01602080910402602001604051908101604052809291908181526020018280546108c890611503565b80156109155780601f106108ea57610100808354040283529160200191610915565b820191906000526020600020905b8154815290600101906020018083116108f857829003601f168201915b505050505081565b60096020528060005260406000206000915090505481565b6000806000806000600860008773ffffffffffffffffffffffffffffffffffffffff1673ffffffffffffffffffffffffffffffffffffffff16815260200190815260200160002060000154600860008873ffffffffffffffffffffffffffffffffffffffff1673ffffffffffffffffffffffffffffffffffffffff16815260200190815260200160002060020160009054906101000a900473ffffffffffffffffffffffffffffffffffffffff16600860008973ffffffffffffffffffffffffffffffffffffffff1673ffffffffffffffffffffffffffffffffffffffff16815260200190815260200160002060010160009054906101000a900473ffffffffffffffffffffffffffffffffffffffff16600860008a73ffffffffffffffffffffffffffffffffffffffff1673ffffffffffffffffffffffffffffffffffffffff16815260200190815260200160002060030154600860008b73ffffffffffffffffffffffffffffffffffffffff1673ffffffffffffffffffffffffffffffffffffffff16815260200190815260200160002060040160009054906101000a900460ff169450945094509450945091939590929450565b60018054610af990611503565b80601f0160208091040260200160405190810160405280929190818152602001828054610b2590611503565b8015610b725780601f10610b4757610100808354040283529160200191610b72565b820191906000526020600020905b815481529060010190602001808311610b5557829003601f168201915b505050505081565b600081600960003373ffffffffffffffffffffffffffffffffffffffff1673ffffffffffffffffffffffffffffffffffffffff168152602001908152602001600020541015610bfe576040517f08c379a0000000000000000000000000000000000000000000000000000000008152600401610bf590611787565b60405180910390fd5b600073ffffffffffffffffffffffffffffffffffffffff168373ffffffffffffffffffffffffffffffffffffffff161415610c3857600080fd5b610c4183610fd1565b610cb157610c4d61107c565b6006839080600181540180825580915050600190039060005260206000200160009091909190916101000a81548173ffffffffffffffffffffffffffffffffffffffff021916908373ffffffffffffffffffffffffffffffffffffffff1602179055505b81600960003373ffffffffffffffffffffffffffffffffffffffff1673ffffffffffffffffffffffffffffffffffffffff1681526020019081526020016000206000828254610d00919061168b565b9250508190555081600960008573ffffffffffffffffffffffffffffffffffffffff1673ffffffffffffffffffffffffffffffffffffffff1681526020019081526020016000206000828254610d5691906116bf565b925050819055506000600860008573ffffffffffffffffffffffffffffffffffffffff1673ffffffffffffffffffffffffffffffffffffffff1681526020019081526020016000209050838160020160006101000a81548173ffffffffffffffffffffffffffffffffffffffff021916908373ffffffffffffffffffffffffffffffffffffffff160217905550338160010160006101000a81548173ffffffffffffffffffffffffffffffffffffffff021916908373ffffffffffffffffffffffffffffffffffffffff16021790555060018160040160006101000a81548160ff02191690831515021790555082816003016000828254610e5791906116bf565b9250508190555060055481600001819055508373ffffffffffffffffffffffffffffffffffffffff163373ffffffffffffffffffffffffffffffffffffffff167fddf252ad1be2c89b69c2b068fc378daa952ba7f163c4a11628f55a4df523b3ef85604051610ec6919061126f565b60405180910390a3600191505092915050565b60068181548110610ee957600080fd5b906000526020600020016000915054906101000a900473ffffffffffffffffffffffffffffffffffffffff1681565b60606006805480602002602001604051908101604052809291908181526020018280548015610f9c57602002820191906000526020600020905b8160009054906101000a900473ffffffffffffffffffffffffffffffffffffffff1673ffffffffffffffffffffffffffffffffffffffff1681526020019060010190808311610f52575b5050505050905090565b60055481565b600a602052816000526040600020602052806000526040600020600091509150505481565b600080600090505b600680549050811015611075578273ffffffffffffffffffffffffffffffffffffffff1660068281548110611011576110106117a7565b5b9060005260206000200160009054906101000a900473ffffffffffffffffffffffffffffffffffffffff1673ffffffffffffffffffffffffffffffffffffffff161415611062576001915050611077565b808061106d906117d6565b915050610fd9565b505b919050565b6005600081548092919061108f906117d6565b9190505550565b600081519050919050565b600082825260208201905092915050565b60005b838110156110d05780820151818401526020810190506110b5565b838111156110df576000848401525b50505050565b6000601f19601f8301169050919050565b600061110182611096565b61110b81856110a1565b935061111b8185602086016110b2565b611124816110e5565b840191505092915050565b6000602082019050818103600083015261114981846110f6565b905092915050565b600080fd5b600073ffffffffffffffffffffffffffffffffffffffff82169050919050565b600061118182611156565b9050919050565b61119181611176565b811461119c57600080fd5b50565b6000813590506111ae81611188565b92915050565b6000819050919050565b6111c7816111b4565b81146111d257600080fd5b50565b6000813590506111e4816111be565b92915050565b6000806040838503121561120157611200611151565b5b600061120f8582860161119f565b9250506020611220858286016111d5565b9150509250929050565b60008115159050919050565b61123f8161122a565b82525050565b600060208201905061125a6000830184611236565b92915050565b611269816111b4565b82525050565b60006020820190506112846000830184611260565b92915050565b6000806000606084860312156112a3576112a2611151565b5b60006112b18682870161119f565b93505060206112c28682870161119f565b92505060406112d3868287016111d5565b9150509250925092565b6000602082840312156112f3576112f2611151565b5b60006113018482850161119f565b91505092915050565b61131381611176565b82525050565b600060a08201905061132e6000830188611260565b61133b602083018761130a565b611348604083018661130a565b6113556060830185611260565b6113626080830184611236565b9695505050505050565b6000602082019050611381600083018461130a565b92915050565b60006020828403121561139d5761139c611151565b5b60006113ab848285016111d5565b91505092915050565b600081519050919050565b600082825260208201905092915050565b6000819050602082019050919050565b6113e981611176565b82525050565b60006113fb83836113e0565b60208301905092915050565b6000602082019050919050565b600061141f826113b4565b61142981856113bf565b9350611434836113d0565b8060005b8381101561146557815161144c88826113ef565b975061145783611407565b925050600181019050611438565b5085935050505092915050565b6000602082019050818103600083015261148c8184611414565b905092915050565b600080604083850312156114ab576114aa611151565b5b60006114b98582860161119f565b92505060206114ca8582860161119f565b9150509250929050565b7f4e487b7100000000000000000000000000000000000000000000000000000000600052602260045260246000fd5b6000600282049050600182168061151b57607f821691505b6020821081141561152f5761152e6114d4565b5b50919050565b600060408201905061154a600083018561130a565b6115576020830184611260565b9392505050565b7f596f7520646f6e2774206861766520656e6f756768206f6620746f656b6e0000600082015250565b6000611594601e836110a1565b915061159f8261155e565b602082019050919050565b600060208201905081810360008301526115c381611587565b9050919050565b7f796f7520646f6e2774206861766520656e6f7567687420616c6c6f77616e636560008201527f20746f6b656e0000000000000000000000000000000000000000000000000000602082015250565b60006116266026836110a1565b9150611631826115ca565b604082019050919050565b6000602082019050818103600083015261165581611619565b9050919050565b7f4e487b7100000000000000000000000000000000000000000000000000000000600052601160045260246000fd5b6000611696826111b4565b91506116a1836111b4565b9250828210156116b4576116b361165c565b5b828203905092915050565b60006116ca826111b4565b91506116d5836111b4565b9250827fffffffffffffffffffffffffffffffffffffffffffffffffffffffffffffffff0382111561170a5761170961165c565b5b828201905092915050565b7f596f7520646f6e2774206861766520656e6f7567682062616c616e6365206f6660008201527f20746f6b656e0000000000000000000000000000000000000000000000000000602082015250565b60006117716026836110a1565b915061177c82611715565b604082019050919050565b600060208201905081810360008301526117a081611764565b9050919050565b7f4e487b7100000000000000000000000000000000000000000000000000000000600052603260045260246000fd5b60006117e1826111b4565b91507fffffffffffffffffffffffffffffffffffffffffffffffffffffffffffffffff8214156118145761181361165c565b5b60018201905091905056fea26469706673582212206344b71e8572ef64cab20dc3ba2dcc4cbca7a1a6f74b3b95a4d146efbc328b5b64736f6c63430008090033",
  "linkReferences": {},
  "deployedLinkReferences": {}
}